:020000040800F2
:100000002029002045010008F7130008E51000082A
:10001000F5130008B1010008011C000800000000F1
:100020000000000000000000000000002719000888
:100030002502000800000000711800083D190008A2
:100040005F0100085F0100085F0100085F01000810
:100050005F0100085F0100085F0100085F01000800
:100060005F0100085F0100085F0100085F010008F0
:100070005F0100085F0100085F0100085F010008E0
:100080005F0100085F0100085F0100085F010008D0
:100090005F0100085F0100085F0100085F010008C0
:1000A0005F0100085F0100085F0100085F010008B0
:1000B0005F0100085F0100085F0100085F010008A0
:1000C0005F0100085F0100085F0100085F01000890
:1000D0005F010008BD1B00085F0100085F01000808
:1000E0005F0100085F0100085F0100085F01000870
:1000F0005F0100085F0100085F0100085F01000860
:100100005F0100085F0100085F0100085F0100084F
:100110005F0100085F0100085F0100085F0100083F
:100120005F0100085F0100085F0100085F0100082F
:10013000DFF80CD000F02AF800480047091F00083B
:10014000202900200648804706480047FEE7FEE7D2
:10015000FEE7FEE7FEE7FEE7FEE7FEE7FEE7FEE777
:100160009519000831010008D2B201E000F8012B16
:10017000491EFBD270470022F6E710B513460A4627
:1001800004461946FFF7F0FF204610BD064C074D08
:1001900006E0E06840F0010394E807009847103457
:1001A000AC42F6D3FFF7C8FFC0220008E0220008E7
:1001B000FEE70000034A0146507812789043084059
:1001C000704700000000002070B5144D002410217D
:1001D000284600F009FA00B901242021284600F041
:1001E00003FA00B902240821284600F0FDF900B9FD
:1001F000042404210A4800F0F7F900B9082440213A
:10020000284600F0F1F900B910248021284600F0BA
:10021000EBF900B92024204670BD0000000C01401D
:1002200000140140704770472DE9F0411D46DDF88C
:1002300018800C46002805DA41428A422BDD104422
:10024000C2B20020002C05DA61428D4223DD19196B
:100250004DB20024002A1ED080281CDA002D1ADDA1
:10026000402C18DA8118802902DDC0F18001CAB261
:100270006119402902DDC4F140014DB206468718DC
:1002800007E043462A462146304601F0BBF9761C7A
:1002900036B2B742F5DCBDE8F08100002DE9F05F31
:1002A00090F821100024022903D004218163012445
:1002B00085E001680A6822F00E020A6001680A6897
:1002C00022F001020A603F4E3E4FB215DFF8F4C043
:1002D000DFF8F090DFF8ECA0DFF8E8B0DFF8E4E05A
:1002E0000168783F13011502ACF1640CA9F15009C3
:1002F000AAF13C0AABF1280BAEF1140E4FF48018B2
:10030000B14227D9B9420ED0614512D049451DD01E
:10031000514518D0594518D0714501D1424615E0D4
:10032000294EB14201D1012210E0274E1436B142CC
:1003300001D110220AE0244E2836B14206D0224ACA
:100340003C32914201D11A4600E02A461E49091F5B
:100350000A602BE0B94213D0614517D0494522D03D
:1003600051451DD059451DD0714501D142461AE075
:10037000B14202D14FF0807215E0134EB14201D16B
:10038000012210E0104E1436B14201D110220AE0D1
:100390000D4E2836B14206D00B4A3C32914201D173
:1003A0001A4600E02A46074980394A60012180F850
:1003B0002110002180F82010416B01B188472046B0
:1003C000BDE8F09F800002400804024070B504467A
:1003D00000F014F90546601C02D00448007804447B
:1003E00000F00CF9401BA042FAD370BD04000020BD
:1003F0002DE9F84FDFF8C891002409F1040A0AF149
:10040000040B23460F270BF1040ED1E00125A54074
:1004100006EA0502AA4276D1DFF8A8C14E68A6EB2B
:100420000C0866452BD00DDC032E34D005DC36B32A
:10043000012E19D0022E2FD11BE0112E16D0122E14
:100440002AD119E0B8F5881F19D006DCB8F5803F2D
:1004500015D0B8F5801F1FD111E0B8F5001F0ED0E0
:10046000B8F5041F18D10AE0CB6815E0CB681B1D56
:1004700012E0CB6808330FE0CB680C330CE08B68DC
:100480002BB1012B4FF0080303D0456104E0042396
:1004900002E0056100E00023FF2A01D8064601E0E2
:1004A00000F104064FEA840501D9A5F12005D6F82C
:1004B000008007FA05FC28EA0C0803FA05F548EA6B
:1004C0000508C6F800804D68ED0070D53E4DAE6958
:1004D00046F00106AE61AD6924F0030605F00105A2
:1004E00000953A4D06EB050CDCF80850A607360FD0
:1004F00007FA06F825EA0805DFF8D480404503D15D
:100500004FF0000825E052E0DFF8C880404502D1F6
:100510004FF001081DE0DFF8C080404502D14FF0E8
:10052000020816E0DFF8B480404502D14FF003081E
:100530000FE0DFF8AC80404502D14FF0040808E03E
:10054000DFF8A080404502D14FF0050801E04FF0F0
:10055000060808FA06F848EA0508CCF808804D684D
:10056000D9F80060ED034D4601D5164300E09643EF
:100570002E604D68DAF80060AD03554601D516438C
:1005800000E096432E604D68DBF80060ED025D46AA
:1005900001D5164300E096432E604D68DEF80060FA
:1005A000AD02754601D5164300E096432E60641CEB
:1005B0000A681646E2407FF429AFBDE8F88F0000D4
:1005C0000004014000001110001002400000014032
:1005D00000080140000C01400010014000140140DF
:1005E00000180140001C01408068084000D0012034
:1005F00070470AB1016170470904FBE70148806850
:10060000704700000400002002488168027811440D
:100610008160704704000020074810B5016841F070
:1006200010010160032000F075F8002000F006F8CA
:1006300000F024F8002010BD0020024070B50D4DE0
:1006400004464FF47A712878B1FBF0F00A49096842
:10065000B1FBF0F000F034FC48B9102C07D20022B6
:100660002146501E00F036F800206C6070BD01205D
:1006700070BD000004000020100000200C4808B5E8
:10068000816941F001018161816901F001010091FD
:10069000C16941F08051C161C06900F08050009093
:1006A0000448416821F0E06141F00071416008BDFB
:1006B0000010024000000140002809DB00F01F028A
:1006C000012191404009800000F1E020C0F80011B4
:1006D00070470000F0B40E4B1B680C46C3F30223B6
:1006E000C3F10705042D00D90425191D072901D2DE
:1006F000002300E0DB1E012606FA05F1491E214019
:1007000099409E40761E16403143F0BC01F079BA04
:100710000CED00E0064900F0070208684FF6FF0301
:10072000184040EA0220034A104308607047000066
:100730000CED00E00000FA052DE9F0470F4605003A
:1007400061D0434E306800F00700B84209D23068EB
:1007500020F0070038433060306800F00700B842EE
:1007600051D128683B4C810712D5400703D56068FA
:1007700040F4E06060602878000703D5606840F4CA
:10078000605060606068A96820F0F0000843606015
:100790002878C00728D06868012810D0216802286E
:1007A00010D0890700292EDA616821F00301014386
:1007B0006160FFF723FF804641F288390DE0216830
:1007C0008903EFE78901EDE7FFF718FFA0EB0801C8
:1007D000494502D90320BDE8F0876068696800F0E8
:1007E0000C00B0EB810FEFD1306800F00700B84289
:1007F0000BD9306820F0070038433060306800F0D3
:100800000700B84201D00120E5E72878400705D568
:100810006068E96820F4E0600843606028780007B9
:1008200006D56068296920F4605040EAC100606024
:1008300000F03EF86168084AC1F30311515CC840FA
:100840000649086006480068FFF7F8FE0020C2E786
:100850000020024000100240482000081000002044
:100860000800002001490120C8647047000042428E
:100870000448054900684968044AC1F30221515CF3
:10088000C8407047100000200010024058200008A7
:100890000448054900684968044AC1F3C221515C13
:1008A000C840704710000020001002405820000887
:1008B00012A185B00FC98DE80F0014A0144A00687A
:1008C00004905168134801F00C03042B10D0082B3E
:1008D0000ED1C1F38343C9031DF803000AD5516843
:1008E00004AAC1F34041515C0A4A5043B0FBF1F005
:1008F00005B0704708494843FAE7000002030405C1
:10090000060708090A0B0C0D0E0F1010010200005B
:100910000010024000127A0000093D002DE9F84F56
:10092000040070D02078C04DC00749D06868C0F37B
:100930008100012807D06868C0F38100022809D12E
:100940006868C00306D52868800339D56068002828
:10095000E7D035E06068B0F5803F0BD010B1B0F55E
:10096000A02F11D0286820F480302860286820F457
:10097000802002E0286840F480302860606890B1F0
:10098000FFF73CFE06460AE0286840F48020286015
:10099000F0E700BFFFF732FE801B642873D8286899
:1009A0008003F7D50CE0FFF729FE064605E000BFFF
:1009B000FFF724FE801B6428F0D828688003F7D452
:1009C00020789A4E80074FF001094FF0000839D582
:1009D000686810F00C0F07D06868C0F38100022827
:1009E00009D16868C00306D42868800714D5206937
:1009F000012808D110E02069B0B1C6F80090FFF7D7
:100A0000FDFD074605E00AE1FFF7F8FDC01B0228DF
:100A1000C4D828688007F7D52868616920F0F800F5
:100A200040EAC10028600DE0C6F80080FFF7E6FD4F
:100A3000074604E0FFF7E2FDC01B022823D8286820
:100A40008007F7D4207800072CD57948A169D9B15F
:100A5000C0F80090FFF7D2FD074604E0FFF7CEFD97
:100A6000C01B02280FD8686A8007F7D571484FF479
:100A7000FA510068B0FBF1F0009000BF0098411EF1
:100A80000091FAD20EE080E0C0F80080FFF7B6FDDA
:100A9000074604E0FFF7B2FDC01B022875D8686A5C
:100AA0008007F7D42078400760D5E8690027C000A8
:100AB00008D4E86940F08050E861E869012700F057
:100AC000805000905C480168C90513D401688346D2
:100AD00041F480710160FFF791FD824606E000BF9E
:100AE000FFF78CFDA0EB0A0064284ED8DBF800006D
:100AF000C005F5D5E06801280AD008B1052813D053
:100B0000286A20F001002862286A20F0040002E030
:100B1000286A40F001002862E06841F2883B98B101
:100B2000FFF76CFD82460BE0286A40F00400286263
:100B3000EEE700BFFFF762FDA0EB0A0159455AD866
:100B4000286A8007F6D50CE0FFF758FD824605E0DD
:100B5000FFF754FDA0EB0A0159454CD8286A8007DD
:100B6000F6D41FB1E86920F08050E861E06988B3ED
:100B70006968C1F38101022944D00228C6F8608067
:100B800004D0FFF73BFD044638E034E0FFF736FDC4
:100B9000074604E0FFF732FDC01B02282BD8286867
:100BA0008001F7D4206AB0F5803F05D16868A1685C
:100BB00020F4003008436860D4E9080108436968FC
:100BC00021F4741108436860C6F86090FFF716FDC1
:100BD000044606E025E000BFFFF710FD001B0228D9
:100BE00009D828688001F7D51BE000BFFFF706FD94
:100BF000001B022802D90320BDE8F88F2868800175
:100C0000F4D40EE00128F7D06868226A00F480313D
:100C1000914204D1616A00F47010884201D0012031
:100C2000EAE70020E8E7000000100240000042422E
:100C300080044242100000200070004070B50400A3
:100C400005D00025A56294F8510010B106E00120FE
:100C500070BD84F85050204600F02EF8022084F831
:100C600051002068016821F040010160D4E90101D0
:100C70000843D4E903121143084361690843218BF7
:100C800001F400710843E1690843216A0843A16A3D
:100C9000084321680860A069042101EA1040216826
:100CA00048602068C16921F40061C1616565012067
:100CB00084F85100002070BD30B585B00024009448
:100CC000019402940394224D0368224802210322D6
:100CD000AB421FD1836943F480538361836903F47A
:100CE00080530493836943F00403836180691A4D40
:100CF00000F004000490A020CDE9000103926946B1
:100D00002846FFF775FB4020CDE9000469462846D8
:100D1000029419E0114CA34218D1C36943F48043F3
:100D2000C361C36903F480430493836943F00803F8
:100D300083618069039200F0080004904FF4204022
:100D4000CDE9000169460648FFF752FB05B030BD0A
:100D5000003001400010024000080140003800400F
:100D6000000C01402DE9F84F044690F85000002790
:100D70001D461646894601280DD04FF0010B84F818
:100D800050B0FFF73BFC804694F85100BA4601286A
:100D900004D002278EE00220BDE8F88FB9F1000FE1
:100DA0007DD0002E7BD0032084F85100C4F854A0DD
:100DB000C4F83090A686E686C4F838A0A4F83CA013
:100DC000A4F83EA0C4F844A0C4F840A0A068B0F5C0
:100DD000004F04D12068016841F48041016020681F
:100DE0000168490603D4016841F040010160E068F0
:100DF000B0F5006F606803D030B3012E24D040E01E
:100E000008B1012E1CD1206B21680088C86006E063
:100E100020688168890709D5216B0988C160206B2A
:100E2000801C2063E08E401EE08609E0FFF7E6FBB1
:100E3000A0EB0800A84202D3681C01D031E07DB3CA
:100E4000E08E0028E4D11FE0206B21680078087351
:100E500006E020688168890709D5216B097801734C
:100E6000206B401C2063E08E401EE08609E0FFF707
:100E7000C5FBA0EB0800A84202D3681C01D010E01B
:100E800075B1E08E0028E4D142462946204600F0A4
:100E9000F0FC08B120206065A06820B107E008E000
:100EA000FFE7032706E02068C16880680090606D56
:100EB00000B1012784F851B084F850A038466BE7A0
:100EC00010B5401EB0F1807F01D3012010BD4FF05E
:100ED000E02460610F21601700F093FE0020A06104
:100EE00007202061002010BD7047000070B5026827
:100EF00004461068D168536910F00F0F51D003F009
:100F0000010501F4907635435DD0C20705D0CA05CE
:100F100003D5E26B42F00102E263420705D5DA072E
:100F200003D0E26B42F00202E263820705D5DA07E2
:100F300003D0E26B42F00402E263020705D5DA0750
:100F400003D0E26B42F00802E263E26B002A34D085
:100F5000800604D5880602D5204600F055FD20689D
:100F60004069E16BC0F3801001F0080101432046A5
:100F700024D000F03BFD2068416949061AD541693B
:100F800021F040014161606BA0B11B494163606B7E
:100F9000FFF784F9002810D0606B416BBDE870400A
:100FA000084783060FD58B060DD52046BDE8704057
:100FB00000F02ABD2046FFF797FF70BDFFF794FFB2
:100FC0000020E06370BD030606D50B0604D520465D
:100FD000BDE8704000F0C0BD4006F3D54806F1D52D
:100FE000D168204621F04001D160202184F83910D9
:100FF00000F077F870BD0000DD19000870B504003E
:1010000004D094F83900002510B106E0012070BD2D
:1010100084F83850204600F023F8242084F8390062
:101020002068C16821F40051C160204600F038FDFD
:101030002068016921F4904101612068416921F033
:101040002A0141612068C16841F40051C160E56333
:10105000202084F8390084F83A00002070BD000098
:1010600030B585B000240094019402940394006884
:10107000184988422CD11848816941F48041816126
:10108000816901F480410491816941F00401816129
:101090008069124D00F0040004904FF4007000903D
:1010A000022001900320039069462846FFF7A0F92B
:1010B0002815CDE90004694628460294FFF798F9FF
:1010C000002211462520FFF705FB2520FFF7F4FA43
:1010D00005B030BD0038014000100240000801405A
:1010E00070477047FEE7000010B5384C01224021E0
:1010F0002046FFF77EFA6420FFF768F900224021BE
:101100002046FFF776FA6420FFF760F901224021BC
:101110002046FFF76EFAAE2000F066FB002000F0DC
:1011200063FB102000F060FB402000F05DFB81209D
:1011300000F05AFBCF2000F057FBA12000F054FB39
:10114000C82000F051FBA62000F04EFBA82000F0C4
:101150004BFB3F2000F048FBD32000F045FB002074
:1011600000F042FBD52000F03FFB802000F03CFB6C
:10117000D92000F039FBF12000F036FBDA2000F036
:1011800033FB122000F030FBDB2000F02DFB402071
:1011900000F02AFB202000F027FB022000F024FBB7
:1011A0008D2000F021FB142000F01EFBA42000F095
:1011B0001BFBA62000F018FB002000F0D3FA00F083
:1011C000EDFABDE81040AF2000F00EBB001001406A
:1011D00010B5034C60782070FEF7F6FF607010BD0C
:1011E0000000002070B53C2000F09EFB00F086FE61
:1011F000124C134D00F031F900281ED0207800EB7E
:10120000400005EB8000406880470646207800EBF0
:10121000400005EB80008068804700F0BFFA002E98
:10122000E8D0207838B10020207000EB400055F85D
:1012300020008047DEE70120F6E770BD280000208F
:10124000602000082DE9F04385B000253248009564
:10125000019502950395816941F0200181618169C1
:1012600001F020010491816941F0040181618169EB
:1012700001F004010491816941F0080181618169F3
:1012800001F008010491816941F0100181618069D8
:10129000224F00F010000490012210213846FFF781
:1012A000A8F90122DFF87890160331464846FFF787
:1012B000A0F9DFF870800122C0214046FFF799F9BC
:1012C000102001248DE83100694638460394FFF769
:1012D0008FF80096CDE90145694648460394FFF72B
:1012E00087F8C0208DE83100694640460394FFF737
:1012F0007FF80420CDE90005694602940A48FFF70B
:1013000077F8F820CDE90005694602944846FFF7D2
:101310006FF805B0BDE8F0830010024000080140FE
:10132000000C01400010014000140140104810B5AD
:101330000E4901604FF48271416000218160C160FB
:101340004FF400720161C0E905121022C0E90721C3
:10135000416281620A21C162FFF770FC002803D05C
:10136000BDE81040FEF75FBF10BD00000030014037
:101370002C040020104810B50E4901604FF4827112
:10138000416000218160C1604FF400720161C0E9D9
:1013900005120822C0E90721416281620A21C16267
:1013A000FFF74CFC002803D0BDE81040FEF73BBF20
:1013B00010BD000000380040840400200C4810B527
:1013C0000A4901604FF4E1314160002181600C2243
:1013D000C160C0E904128161C161FFF70FFE0028FE
:1013E00003D0BDE81040FEF71EBF10BD003801401D
:1013F000DC040020FEE770472DE9F0470D46044667
:101400004FF000087F2805DA3F2D03DA002C01DDBC
:10141000002D02DCFF20BDE8F087671E05F1010901
:1014200004F1010A0DE06E1E08E0F1B2F8B200F01E
:10143000A7F9012801D108F10108761C4E45F4DD19
:101440007F1C5745EFDDE9B2E0B200F099F90128C1
:1014500001D1A8F101084046DDE710B500F066FDB6
:10146000040001D0FFF7B4FE204610BD002000F0BC
:1014700079B900002DE9FF4F81B08146DDE90E2EDC
:10148000002901DD084601E0C1F100004FEAE074E7
:1014900000EB547424F00704A0EB04044FEAE1705D
:1014A00001EB50704FEAE00603DAC4F10804A6F13C
:1014B00001064FEAD205500700D06D1C00216FF0E5
:1014C000010ADFF83CB153E07218072A52DC52459A
:1014D0004DDD002049E000BF00EB09077F2F46DC0F
:1014E000002F41DB002A1BDBBEF1010F45D0BEF10E
:1014F000000F5AD0DDF80CC001FB03F7844417F845
:101500000C7009EBC21C0CEB0008CDF800801BF836
:101510000880A74087EA0807DDF800800BF808700C
:1015200014B3072A20DA52451EDDBEF1010F4ED05A
:101530004FEAC21707F180074F4407440097DDF8D0
:101540000C801BF807C001FB03F78044BEF1000FBD
:1015500017F80870C4F1080827FA08F74CD08CEA8D
:10156000070C009F0BF807C0401C9842B4DB491CD5
:10157000A942A9DB05B0BDE8F08FDDF80CC001FB86
:1015800003F7844417F80C8009EBC21707EB000C33
:10159000CDF800C01BF80CC008FA04F848EA0C08A3
:1015A000DDF800C00BF80C80BAE7039F01FB03FCD9
:1015B00007441CF807C009EBC21707440CFA04FCE7
:1015C0001BF807800CEA080C0BF807C0A8E7D70146
:1015D00080374F4407440097DDF80C801BF807C0A4
:1015E00001FB03F7804417F80870C4F1080827FAD4
:1015F00008F74CEA070CB4E72CEA070CB1E7000047
:101600002C000020F0B58D181E460446002908DA8B
:10161000484282421FDD501842B20021002A1ADDE2
:1016200003E0002A17DD402915DA002C13DD802C99
:1016300011DA002900DC00210F4605E0F9B2E0B222
:10164000324600F077F87F1C402D01DC284600E090
:101650004020B842F2DCF0BD2DE9FF43BDF90C207B
:10166000BDF90410DDF82C90501A002800DC881A0F
:10167000BDF90830BDF90020991A002900DCD11A03
:10168000884209DD012701A9684600F06BFC03A927
:1016900002A800F067FC00E00027BDF90000BDF9DA
:1016A0000810884207DD02A9684600F05BFC03A928
:1016B00001A800F057FCBDF80800BDF80010401A62
:1016C00005B2BDF90C10BDF904000A1A002A00DCAD
:1016D000421A0FFA82F805EBD5725410884201DAEB
:1016E00001261FE04FF0FF361CE01FB1C1B2BDF86C
:1016F000040002E0BDF80410C9B2C0B24A4600F0CE
:1017000019F8A4EB080004B2002C06DABDF80400B6
:101710003044ADF80400601904B2BDF80000401C6C
:10172000ADF80000BDF90000BDF908108842DCDD0D
:10173000BDE8FF8310B57F2810D83F290ED8CB080D
:1017400000EBC31001F00704054B0121A140002A62
:101750001A5C01D00A4300E08A431A5410BD00000D
:101760002C00002000B1FF20044A00214FF48063C8
:101770005054491C09B29942FADB70472C000020F2
:10178000CA0800EBC210044A01F00701105C0122F4
:101790008A401040C84070472C00002070B52020BF
:1017A00000F022F8002000F01FF8212000F01CF8C3
:1017B000002000F019F87F2000F016F8222000F039
:1017C00013F8002000F010F8072000F00DF8054D88
:1017D00000244FF48066285D00F028F8641CB442B1
:1017E000F9DB70BD2C00002031B5002280210C48AF
:1017F000FEF7FFFE0B4D4FF4805400222146284691
:10180000FEF7F7FE4FF47A73012269460648FFF7A8
:10181000A9FA012221462846FEF7EBFE38BD00005A
:1018200000100140000C01408404002031B5012269
:1018300080210C48FEF7DDFE0B4D4FF48054002252
:1018400021462846FEF7D5FE4FF47A7301226946F9
:101850000648FFF787FA012221462846FEF7C9FE0F
:1018600038BD000000100140000C0140840400203D
:10187000704738B50B46009204460022802100F0E4
:1018800008F8002804D0606D40F020006065032057
:1018900038BD2DE9F0411D4617460E460446DDF8D9
:1018A000188008E0681C06D0FEF7A8FEA0EB080030
:1018B000A8420BD255B12068806836EA000030D0CB
:1018C0000020B842EED10020BDE8F08120684168D8
:1018D00021F0E00141606068B0F5827F0BD1A06823
:1018E000B0F5004F02D0B0F5806F04D120680168D8
:1018F00021F040010160A06AB0F5005F09D12068C5
:10190000016821F4005101602068016841F4005130
:101910000160012084F85100002084F85000032069
:10192000D2E70120CDE7704703494FF47A7208707F
:10193000B2FBF0F04870704714000020FEF764BE60
:1019400030B58FB028216846FEF715FC14210AA88F
:10195000FEF711FC01210804CDE9001000240294D7
:1019600002250491CDE907504FF4E0100990684634
:10197000FEF7D4FF0F20CDE90A056802CDE90C403F
:1019800002210AA80E94FEF7D7FEFEF76BFF0FB0F8
:1019900030BD00000D48016841F00101016041685F
:1019A0000B4A1140416001680A4A11400160016818
:1019B00021F480210160416821F4FE0141604FF46F
:1019C0001F0181600449C003086070470010024095
:1019D0000000FFF8FFFFF6FE08ED00E010B5406ADA
:1019E0000021C185C184FFF77FFA10BD0168CA6874
:1019F00022F49072CA6001684A6922F001024A61C9
:101A0000202180F83A10704710B590F83A1022293A
:101A100001D0022010BD8168B1F5805F11D001694D
:101A2000002901681FD0496801F07F03816A4A1CC0
:101A300082620B70C18D491E0904090CC18518D042
:101A40002BE00269816A002A0268526805D0D2B28E
:101A50000A80816A491C8162ECE7C2F308020A80AD
:101A6000816A891CF7E74A68816A4B1C83620A70A5
:101A7000E0E70168CA6822F02002CA600168CA680B
:101A800022F48072CA6001684A6922F001024A6148
:101A9000202180F83A10FFF723FB002010BD000042
:101AA0002DE9F041044600680169E26821F44051E3
:101AB000114301612169A0680843616908432168F5
:101AC000CA6841F20C639A430243CA6020684169C4
:101AD000A26921F44071114341611E4920686425C7
:101AE0003226884202D1FEF7D3FE01E0FEF7C0FEA7
:101AF00000EBC00101EB001160686FF01807800077
:101B0000B1FBF0F2B2FBF5F2B1FBF0F37A4303EB79
:101B10008202B1FBF0F306EB0212B2FBF5F2B3FB6B
:101B2000F5F302F0F00202EB0312B1FBF0F3B1FBAC
:101B3000F0F0B0FBF5F0784303EB800006EB00100B
:101B4000B0FBF5F0216800F00F0010448860BDE89C
:101B5000F08100000038014090F83910212901D0AF
:101B6000022070478168B1F5805F016A0BD04A1C82
:101B70000262026809785160C18C491E0904090C8F
:101B8000C1840ED017E009880268C1F308015160D2
:101B900001690029016A02D0491C0162ECE7891C35
:101BA000FBE70168CA6822F08002CA600068C16869
:101BB00041F04001C1600020704700000148FFF77C
:101BC00095B90000DC0400202DE9F0410B4F002501
:101BD000002407EB8516E1B2305D0128E8B20BD096
:101BE0005FF00002FFF7A6FD641C402CF3DB6D1CC8
:101BF000802DEDDBBDE8F0810122F3E71C0500201C
:101C0000FEE70907090E002804DB00F1E02080F858
:101C10000014704700F00F0000F1E02080F8141D60
:101C2000704702E008C8121F08C1002AFAD17047A5
:101C30007047002001E001C1121F002AFBD170474C
:101C400010B5044C2079002803D0FFF7BDFF002019
:101C5000207110BD140000201CB53D4C6078002898
:101C600075D0FFF703FC2078012206286DD2DFE84B
:101C700000F0031C414E5B631E213E2000F098F8EB
:101C80001E21202000F094F81E215C2000F090F826
:101C90000F213E2000F006F90F21202000F002F96C
:101CA0000F215C2000F0FEF84FE02D213E2000F0D7
:101CB00053F82D21202000F04FF82D215C2000F05A
:101CC0004BF81E213E2000F07CF81E21202000F061
:101CD00078F81E215C2000F074F80F213E2000F0FF
:101CE00078F80F21202000F074F80F215C2000F01C
:101CF00070F82AE01E21202000F08EF81E215C20C2
:101D000000F08AF81E213E2000F086F81DE01E211A
:101D1000202000F09BF81E213E2000F097F81E21A5
:101D20005C2000F093F810E00923CDE900321E207A
:101D300001462423074A06E04023CDE90032054A44
:101D40001F2000214832FFF795FB002060701CBD6A
:101D500029000020782000082DE9F0410C460546B6
:101D60004E1CF1B2C0B20122FFF7E4FC04F10208FC
:101D700008F0FF01E8B20122FFF7DCFC6F1CE1B2C2
:101D8000F8B20122FFF7D6FCE41CE1B2F8B201225E
:101D9000FFF7D0FCAD1CF1B2E8B20122FFF7CAFC9C
:101DA00008F0FF01E8B2BDE8F0410122FFF7C2BC34
:101DB00008B501220092821C0B4612B2FFF74CFCC0
:101DC00008BD08B50122022300921A46FEF72CFA3C
:101DD00008BD2DE9F0410C460546C9B2C0B201224A
:101DE000FFF7A8FC661CF1B2E8B20122FFF7A2FCE3
:101DF0006F1CE1B2F8B20122FFF79CFCAD1CF1B2FE
:101E0000E8B20122FFF796FCA41CE1B2F8B2BDE8EB
:101E1000F0410122FFF78EBC38B504460120009046
:101E2000A01C02B20D460B462046FFF715FC681CAD
:101E3000C1B2E0B20122FFF77DFCAD1C641CE9B227
:101E4000E0B2BDE838400122FFF774BCF8B50546A2
:101E500001200090C81C03B2E81C0C4602B21946CF
:101E60002846FFF7F9FB601CC1B2E8B20122FFF778
:101E700061FCA61CF1B2E8B20122FFF75BFC681C12
:101E8000E1B2C0B20122FFF755FC2D1DE1B2E8B26C
:101E90000122FFF74FFCF1B2E8B2BDE8F8400122A1
:101EA000FFF748BCF8B50446C01C02B20126601C0E
:101EB0000D460B4600B20096FFF7CEFB6D1CA01C32
:101EC0002BB202B2194620460096FFF7C5FBF8BDBB
:101ED00010B508480022084C02811146002004EB8E
:101EE00081131A54401C4028FBDB491C8029F5DB78
:101EF00010BD0000140000201C0500200149012035
:101F00004870704729000020FEF786FBFFF718FD98
:101F1000FFF798F9FFF70AFAFFF72CFAFFF74EFAE6
:101F2000FFF7E2F8FFF75EF9FCE7000010B5FEF7F7
:101F300065FB0B498A783AB10A7B821ACA70CA8853
:101F4000521CCA8000228A700A69904201DA00207D
:101F500010BD4A780244C1E903020120887010BD17
:101F60001400002002880B8803800A80704700005C
:101F70002DE9F0471E480189491C89B201810529D4
:101F80002DD3002606814FF00109DFF8688080F824
:101F900004903746002408EB8715E1B2F8B2FFF74A
:101FA000EFFB01282146384607D0FFF725FA042821
:101FB0000ED2DFE800F00D0D0D0AFFF71DFA042820
:101FC00006D2DFE800F00505020205F8049000E003
:101FD0002E55641C402CE0DB7F1C802FDADB202098
:101FE000FEF7E8F8002800D00120BDE8F0870000E7
:101FF000140000201C05002070B500250420FEF709
:10200000D9F8104C012620B1207858B1401E20701C
:1020100066700820FEF7CEF848B12078052803D373
:10202000002002E00520F2E7401C207066701020BE
:10203000FEF7C0F800B101252020FEF7BBF82846C6
:1020400070BD00002900002000000000000000001A
:10205000010203040607080900000000010203044E
:10206000FD1E0008F91F0008591C0008D11E0008B9
:10207000711F0008411C0008303000000000000003
:102080000000708804042088702000001C1C2200BE
:10209000630000000000000000000C0C00000000C5
:1020A000000000000000000001010000000000002E
:1020B0000000000000000000000000000000000020
:1020C0000000000000000000000000000000000010
:1020D0000000000000000000000000000000000000
:1020E00000000000000000000000008080000000F0
:1020F00000000000000000000000000000000000E0
:1021000000000000000000000000000000000000CF
:102110000038387070E0E0C08080000000000000EF
:10212000000000000080C0F0783E1F0703000000A0
:10213000000000000000000000000000000000009F
:102140000000000000000000F8F8F818181898982F
:1021500098989898989898999B9B9F9F9E9E9C9CD6
:102160009898989C9E9F9B999898989898989898DA
:102170009898181818F8F8F80000000000000000FF
:102180000000000000000000FFFFFF0000FFFF0351
:102190000303030303038383C3C38303030303030F
:1021A0000303030303C3C3C38383030303030303BF
:1021B00003FFFF0000FFFFFF000000000000000021
:1021C0000000000000000000FFFFFF0000FFFF0014
:1021D000000006060707030301E1E000000000C05D
:1021E000E0C000000080E1E10303070E0E0C0000D8
:1021F00000FFFF0000FFFFFF0000000000000000E4
:102200000000000000000000FFFFFF0000FFFF8053
:102210008080808080808080808387878E8E878783
:102220008387868E8687838180808080808080807F
:1022300080FFFF0000FFFFFF000000000000000023
:1022400000000000000000001F3F3F38383939F916
:10225000F9B9B9F9F9F939393939393939393939EE
:102260003939393939393939393939F9F9F9B9B99E
:10227000F9F93938383F3F1F000000000000000026
:10228000000000000000000000000000000000004E
:102290000101010101000000000000000000000039
:1022A000000000000000000000000000010101012A
:1022B000010000000000000000000000000000001D
:1022C000E0220008000000202C000000221C000872
:1022D0000C2300082C000020F4280000321C000809
:1022E00000000000010000001000000000000000DD
:1022F0000024F400000000000000000000000000C6
:0C230000000000000000000000000000D1
:0400000508000131BD
:00000001FF
